:1000000002007DC29EC29FE4F508E4FF1200717FEA
:10001000F47E011200517FFF1200717FF47E011205
:1000200000510508E508C3940340DFE4F508E5083E
:10003000C3940350D27F551200717FF47E011200E9
:10004000517FAA1200717FF47E01120051050880D1
:10005000DDE4FDFCC3ED9FEC9E5015E4FBFA0BBB09
:1000600000010AEB647B4A70F50DBD00010C80E4D1
:10007000228F993099FDC299C2B2D2B222787FE420
:09008000F6D8FD758108020003A9
:00000001FF
